:100E64000A128A11352F0F30A4000313831686014A
:100E7400031383128601861406110830A30004307C
:100E8400A6008130A700A800A900A6270130A6006B
:100E9400FF30A700A800A900A6270230A600FF3053
:100EA400A700A800A900A6272030A600FF30A700AD
:100EB400A800A900A6272130A600FF30A700A8009B
:100EC400A900A6272230A600FF30A700A800A90089
:100ED400A6272330A600FF30A700A800A900A62754
:100EE4000830A000CC272708B0002808B100013042
:100EF400A000CC272030A600FF303008A900A62788
:100F04000230A000CC272130A600FF303108A90010
:100F1400A6271030A000CC272708B0002808B1006D
:100F24000430A000CC272230A600FF303008A900EE
:100F3400A6272030A000CC272330A600FF3031089C
:100F4400A900A627FB27722F86102608A500BD2717
:100F54002708A500BD272608A500BD272808A50049
:100F6400BD272608A500BD272908A500BD27861191
:100F74008614FB2708008611A51F0610A51B06145E
:100F8400FB27A50D8615FB27A30BBD2F0830A30057
:100F940006100800061520188130A018C130201949
:100FA400A130A019E130201A9130A01AB130A50067
:100FB4000614BD2706100610ED2706140611FB279C
:100FC400E427080025080F39303EA700250E07390D
:100FD400303EA8000800061CA5130618A5178611A4
:100FE400A50CFB278615FB27A30BED2F0830A300C8
:0C0FF40008008F0BFB2F0F30A40008003A
:02400E003B3F36
:00000001FF
